{
  "contractName": "TokensAddr",
  "abi": [
    {
      "inputs": [
        {
          "internalType": "string",
          "name": "symbol",
          "type": "string"
        }
      ],
      "name": "getTokenAddr",
      "outputs": [
        {
          "internalType": "address",
          "name": "",
          "type": "address"
        },
        {
          "internalType": "bool",
          "name": "",
          "type": "bool"
        }
      ],
      "stateMutability": "pure",
      "type": "function"
    },
    {
      "inputs": [
        {
          "internalType": "string",
          "name": "a",
          "type": "string"
        },
        {
          "internalType": "string",
          "name": "b",
          "type": "string"
        }
      ],
      "name": "compareStrings",
      "outputs": [
        {
          "internalType": "bool",
          "name": "",
          "type": "bool"
        }
      ],
      "stateMutability": "pure",
      "type": "function"
    }
  ],
  "bytecode": "0x608060405234801561001057600080fd5b506104e9806100206000396000f3fe608060405234801561001057600080fd5b50600436106100365760003560e01c80636ff4206f1461003b578063bed34bba1461006c575b600080fd5b61005560048036038101906100509190610236565b61009c565b604051610063929190610349565b60405180910390f35b61008660048036038101906100819190610277565b610175565b6040516100939190610372565b60405180910390f35b6000806100de836040518060400160405280600481526020017f5553445400000000000000000000000000000000000000000000000000000000815250610175565b156101035773fcf9f99d135d8a78ab60cc59cccf3108e813ba35600091509150610170565b610142836040518060400160405280600381526020017f4254590000000000000000000000000000000000000000000000000000000000815250610175565b1561016757735e7186ac0c12da2c4caf58147e2f68798f3099c0600091509150610170565b60006001915091505b915091565b6000816040516020016101889190610332565b60405160208183030381529060405280519060200120836040516020016101af9190610332565b6040516020818303038152906040528051906020012014905092915050565b60006101e16101dc846103be565b61038d565b9050828152602081018484840111156101f957600080fd5b610204848285610442565b509392505050565b600082601f83011261021d57600080fd5b813561022d8482602086016101ce565b91505092915050565b60006020828403121561024857600080fd5b600082013567ffffffffffffffff81111561026257600080fd5b61026e8482850161020c565b91505092915050565b6000806040838503121561028a57600080fd5b600083013567ffffffffffffffff8111156102a457600080fd5b6102b08582860161020c565b925050602083013567ffffffffffffffff8111156102cd57600080fd5b6102d98582860161020c565b9150509250929050565b6102ec81610404565b82525050565b6102fb81610416565b82525050565b600061030c826103ee565b61031681856103f9565b9350610326818560208601610451565b80840191505092915050565b600061033e8284610301565b915081905092915050565b600060408201905061035e60008301856102e3565b61036b60208301846102f2565b9392505050565b600060208201905061038760008301846102f2565b92915050565b6000604051905081810181811067ffffffffffffffff821117156103b4576103b3610484565b5b8060405250919050565b600067ffffffffffffffff8211156103d9576103d8610484565b5b601f19601f8301169050602081019050919050565b600081519050919050565b600081905092915050565b600061040f82610422565b9050919050565b60008115159050919050565b600073ffffffffffffffffffffffffffffffffffffffff82169050919050565b82818337600083830152505050565b60005b8381101561046f578082015181840152602081019050610454565b8381111561047e576000848401525b50505050565b7f4e487b7100000000000000000000000000000000000000000000000000000000600052604160045260246000fdfea2646970667358221220e36612b8dd384f39de22d1ab67e9ab0d11c79bc5a9575e379c167b433bd916b064736f6c63430008000033",
  "immutableReferences": {},
  "source": "// SPDX-License-Identifier: MIT\npragma solidity >=0.4.22 <0.9.0;\n\ncontract TokensAddr {\n   function getTokenAddr(string memory symbol) public pure returns (address, bool){\n      if(compareStrings(symbol, \"USDT\")){\n          return (address(0xFCf9F99D135D8a78ab60CC59CcCF3108E813bA35), false);\n      } else if(compareStrings(symbol, \"BTY\")){\n          return (address(0x5e7186AC0C12dA2c4CAf58147E2F68798f3099C0), false);\n      }else{\n          return (address(0x00), true);\n      }\n   }\n\n   function compareStrings(string memory a, string memory b) public pure returns (bool) {\n    return (keccak256(abi.encodePacked((a))) == keccak256(abi.encodePacked((b))));\n}\n}",
  "sourcePath": "/Users/macbook/Documents/freelance/go/src/github.com/VoroshilovMax/bettery/contracts/contracts/ether/tokensAddr.sol",
  "compiler": {
    "name": "solc",
    "version": "0.8.0+commit.c7dfd78e.Linux.g++"
  },
  "schemaVersion": "3.4.2",
  "updatedAt": "2021-08-05T09:50:36.664Z",
  "devdoc": {
    "kind": "dev",
    "methods": {},
    "version": 1
  },
  "userdoc": {
    "kind": "user",
    "methods": {},
    "version": 1
  }
}