{
  "contractName": "Transfer",
  "abi": [
    {
      "anonymous": false,
      "inputs": [
        {
          "indexed": false,
          "internalType": "string",
          "name": "cosmosWallet",
          "type": "string"
        },
        {
          "indexed": false,
          "internalType": "uint256",
          "name": "amount",
          "type": "uint256"
        },
        {
          "indexed": false,
          "internalType": "address",
          "name": "sender",
          "type": "address"
        },
        {
          "indexed": false,
          "internalType": "string",
          "name": "token",
          "type": "string"
        }
      ],
      "name": "transferERC20Event",
      "type": "event"
    },
    {
      "anonymous": false,
      "inputs": [
        {
          "indexed": false,
          "internalType": "string",
          "name": "cosmosWallet",
          "type": "string"
        },
        {
          "indexed": false,
          "internalType": "uint256",
          "name": "amount",
          "type": "uint256"
        },
        {
          "indexed": false,
          "internalType": "address",
          "name": "sender",
          "type": "address"
        }
      ],
      "name": "transferETHEvent",
      "type": "event"
    },
    {
      "inputs": [],
      "name": "owner",
      "outputs": [
        {
          "internalType": "address",
          "name": "",
          "type": "address"
        }
      ],
      "stateMutability": "view",
      "type": "function"
    },
    {
      "inputs": [],
      "name": "TransferInit",
      "outputs": [],
      "stateMutability": "nonpayable",
      "type": "function"
    },
    {
      "inputs": [
        {
          "internalType": "string",
          "name": "cosmosWallet",
          "type": "string"
        }
      ],
      "name": "transferETH",
      "outputs": [],
      "stateMutability": "payable",
      "type": "function"
    },
    {
      "inputs": [
        {
          "internalType": "uint256",
          "name": "amount",
          "type": "uint256"
        }
      ],
      "name": "transferERC20",
      "outputs": [],
      "stateMutability": "nonpayable",
      "type": "function"
    }
  ],
  "bytecode": "0x608060405234801561001057600080fd5b506106fd806100206000396000f3fe60806040526004361061003f5760003560e01c80638da5cb5b14610044578063a539e0bc1461006f578063a71e964c1461008b578063b3610099146100a2575b600080fd5b34801561005057600080fd5b506100596100cb565b60405161006691906104dc565b60405180910390f35b61008960048036038101906100849190610375565b6100f1565b005b34801561009757600080fd5b506100a06101db565b005b3480156100ae57600080fd5b506100c960048036038101906100c491906103b6565b6102f5565b005b600060029054906101000a900473ffffffffffffffffffffffffffffffffffffffff1681565b60003411610134576040517f08c379a000000000000000000000000000000000000000000000000000000000815260040161012b90610555565b60405180910390fd5b600060029054906101000a900473ffffffffffffffffffffffffffffffffffffffff1673ffffffffffffffffffffffffffffffffffffffff166108fc349081150290604051600060405180830381858888f1935050505015801561019c573d6000803e3d6000fd5b507f9f1a7d40e1a9a56b3e4186cea9a3bce0373ef4ee4d6a00d2268809453e0e78b28134336040516101d0939291906104f7565b60405180910390a150565b600060019054906101000a900460ff1680610201575060008054906101000a900460ff16155b610240576040517f08c379a000000000000000000000000000000000000000000000000000000000815260040161023790610535565b60405180910390fd5b60008060019054906101000a900460ff161590508015610290576001600060016101000a81548160ff02191690831515021790555060016000806101000a81548160ff0219169083151502179055505b33600060026101000a81548173ffffffffffffffffffffffffffffffffffffffff021916908373ffffffffffffffffffffffffffffffffffffffff16021790555080156102f25760008060016101000a81548160ff0219169083151502179055505b50565b50565b600061030b610306846105a6565b610575565b90508281526020810184848401111561032357600080fd5b61032e84828561062e565b509392505050565b600082601f83011261034757600080fd5b81356103578482602086016102f8565b91505092915050565b60008135905061036f816106b0565b92915050565b60006020828403121561038757600080fd5b600082013567ffffffffffffffff8111156103a157600080fd5b6103ad84828501610336565b91505092915050565b6000602082840312156103c857600080fd5b60006103d684828501610360565b91505092915050565b6103e8816105f2565b82525050565b60006103f9826105d6565b61040381856105e1565b935061041381856020860161063d565b61041c8161069f565b840191505092915050565b6000610434602e836105e1565b91507f496e697469616c697a61626c653a20636f6e747261637420697320616c72656160008301527f647920696e697469616c697a65640000000000000000000000000000000000006020830152604082019050919050565b600061049a6018836105e1565b91507f416d6f756e74206d757374206265206d6f7265206174203000000000000000006000830152602082019050919050565b6104d681610624565b82525050565b60006020820190506104f160008301846103df565b92915050565b6000606082019050818103600083015261051181866103ee565b905061052060208301856104cd565b61052d60408301846103df565b949350505050565b6000602082019050818103600083015261054e81610427565b9050919050565b6000602082019050818103600083015261056e8161048d565b9050919050565b6000604051905081810181811067ffffffffffffffff8211171561059c5761059b610670565b5b8060405250919050565b600067ffffffffffffffff8211156105c1576105c0610670565b5b601f19601f8301169050602081019050919050565b600081519050919050565b600082825260208201905092915050565b60006105fd82610604565b9050919050565b600073ffffffffffffffffffffffffffffffffffffffff82169050919050565b6000819050919050565b82818337600083830152505050565b60005b8381101561065b578082015181840152602081019050610640565b8381111561066a576000848401525b50505050565b7f4e487b7100000000000000000000000000000000000000000000000000000000600052604160045260246000fd5b6000601f19601f8301169050919050565b6106b981610624565b81146106c457600080fd5b5056fea2646970667358221220cd6720eafc5ea6c4d47c1d8e99d855445bdce8d20ba948d4cb0bf4f5bf86869964736f6c63430008000033",
  "immutableReferences": {},
  "source": "// SPDX-License-Identifier: MIT\npragma solidity >=0.4.22 <0.9.0;\n\nimport \"@openzeppelin/contracts-upgradeable/proxy/utils/Initializable.sol\";\n\ncontract Transfer is Initializable {\n    address public owner;\n    event transferETHEvent(string cosmosWallet, uint amount, address sender);\n    event transferERC20Event(string cosmosWallet, uint amount, address sender, string token);\n\n    function TransferInit() public initializer {\n       owner = msg.sender;\n    }\n\n    function transferETH(string memory cosmosWallet) public payable {\n       require(msg.value > 0, \"Amount must be more at 0\");\n       payable(owner).transfer(msg.value);\n       emit transferETHEvent(cosmosWallet, msg.value, msg.sender);\n    }\n\n    function transferERC20(uint amount) public {\n\n    }\n}\n",
  "sourcePath": "/Users/macbook/Documents/freelance/go/src/github.com/VoroshilovMax/bettery/contracts/contracts/ether/Transfer.sol",
  "compiler": {
    "name": "solc",
    "version": "0.8.0+commit.c7dfd78e.Linux.g++"
  },
  "schemaVersion": "3.4.2",
  "updatedAt": "2021-08-04T19:29:30.497Z",
  "devdoc": {
    "kind": "dev",
    "methods": {},
    "version": 1
  },
  "userdoc": {
    "kind": "user",
    "methods": {},
    "version": 1
  }
}