{
  "contractName": "Transfer",
  "abi": [
    {
      "anonymous": false,
      "inputs": [
        {
          "indexed": false,
          "internalType": "string",
          "name": "cosmosWallet",
          "type": "string"
        },
        {
          "indexed": false,
          "internalType": "uint256",
          "name": "amount",
          "type": "uint256"
        },
        {
          "indexed": false,
          "internalType": "address",
          "name": "sender",
          "type": "address"
        },
        {
          "indexed": false,
          "internalType": "string",
          "name": "token",
          "type": "string"
        }
      ],
      "name": "transferERC20Event",
      "type": "event"
    },
    {
      "anonymous": false,
      "inputs": [
        {
          "indexed": false,
          "internalType": "string",
          "name": "cosmosWallet",
          "type": "string"
        },
        {
          "indexed": false,
          "internalType": "uint256",
          "name": "amount",
          "type": "uint256"
        },
        {
          "indexed": false,
          "internalType": "address",
          "name": "sender",
          "type": "address"
        }
      ],
      "name": "transferETHEvent",
      "type": "event"
    },
    {
      "inputs": [
        {
          "internalType": "string",
          "name": "a",
          "type": "string"
        },
        {
          "internalType": "string",
          "name": "b",
          "type": "string"
        }
      ],
      "name": "compareStrings",
      "outputs": [
        {
          "internalType": "bool",
          "name": "",
          "type": "bool"
        }
      ],
      "stateMutability": "pure",
      "type": "function"
    },
    {
      "inputs": [
        {
          "internalType": "string",
          "name": "symbol",
          "type": "string"
        }
      ],
      "name": "getTokenAddr",
      "outputs": [
        {
          "internalType": "address",
          "name": "",
          "type": "address"
        },
        {
          "internalType": "bool",
          "name": "",
          "type": "bool"
        }
      ],
      "stateMutability": "pure",
      "type": "function"
    },
    {
      "inputs": [],
      "name": "owner",
      "outputs": [
        {
          "internalType": "address",
          "name": "",
          "type": "address"
        }
      ],
      "stateMutability": "view",
      "type": "function"
    },
    {
      "inputs": [],
      "name": "TransferInit",
      "outputs": [],
      "stateMutability": "nonpayable",
      "type": "function"
    },
    {
      "inputs": [
        {
          "internalType": "string",
          "name": "_cosmosWallet",
          "type": "string"
        }
      ],
      "name": "transferETH",
      "outputs": [],
      "stateMutability": "payable",
      "type": "function"
    },
    {
      "inputs": [
        {
          "internalType": "uint256",
          "name": "_amount",
          "type": "uint256"
        },
        {
          "internalType": "string",
          "name": "_symbol",
          "type": "string"
        },
        {
          "internalType": "string",
          "name": "_cosmosWallet",
          "type": "string"
        }
      ],
      "name": "transferERC20",
      "outputs": [],
      "stateMutability": "payable",
      "type": "function"
    }
  ],
  "bytecode": "0x608060405234801561001057600080fd5b50610f02806100206000396000f3fe6080604052600436106100555760003560e01c80636ff4206f1461005a5780638da5cb5b14610098578063a539e0bc146100c3578063a71e964c146100df578063bed34bba146100f6578063c8cef4bc14610133575b600080fd5b34801561006657600080fd5b50610081600480360381019061007c91906107f3565b61014f565b60405161008f929190610bd7565b60405180910390f35b3480156100a457600080fd5b506100ad610228565b6040516100ba9190610b5c565b60405180910390f35b6100dd60048036038101906100d891906107f3565b61024e565b005b3480156100eb57600080fd5b506100f4610338565b005b34801561010257600080fd5b5061011d60048036038101906101189190610834565b610452565b60405161012a9190610c00565b60405180910390f35b61014d600480360381019061014891906108c9565b6104ab565b005b600080610191836040518060400160405280600481526020017f5553445400000000000000000000000000000000000000000000000000000000815250610452565b156101b65773fcf9f99d135d8a78ab60cc59cccf3108e813ba35600091509150610223565b6101f5836040518060400160405280600381526020017f4254590000000000000000000000000000000000000000000000000000000000815250610452565b1561021a57735e7186ac0c12da2c4caf58147e2f68798f3099c0600091509150610223565b60006001915091505b915091565b600060029054906101000a900473ffffffffffffffffffffffffffffffffffffffff1681565b60003411610291576040517f08c379a000000000000000000000000000000000000000000000000000000000815260040161028890610d2c565b60405180910390fd5b600060029054906101000a900473ffffffffffffffffffffffffffffffffffffffff1673ffffffffffffffffffffffffffffffffffffffff166108fc349081150290604051600060405180830381858888f193505050501580156102f9573d6000803e3d6000fd5b507f9f1a7d40e1a9a56b3e4186cea9a3bce0373ef4ee4d6a00d2268809453e0e78b281343360405161032d93929190610c1b565b60405180910390a150565b600060019054906101000a900460ff168061035e575060008054906101000a900460ff16155b61039d576040517f08c379a000000000000000000000000000000000000000000000000000000000815260040161039490610d0c565b60405180910390fd5b60008060019054906101000a900460ff1615905080156103ed576001600060016101000a81548160ff02191690831515021790555060016000806101000a81548160ff0219169083151502179055505b33600060026101000a81548173ffffffffffffffffffffffffffffffffffffffff021916908373ffffffffffffffffffffffffffffffffffffffff160217905550801561044f5760008060016101000a81548160ff0219169083151502179055505b50565b6000816040516020016104659190610b45565b604051602081830303815290604052805190602001208360405160200161048c9190610b45565b6040516020818303038152906040528051906020012014905092915050565b6000806104b78461014f565b91509150806104fb576040517f08c379a00000000000000000000000000000000000000000000000000000000081526004016104f290610cac565b60405180910390fd5b6000829050858173ffffffffffffffffffffffffffffffffffffffff1663dd62ed3e33600060029054906101000a900473ffffffffffffffffffffffffffffffffffffffff166040518363ffffffff1660e01b815260040161055e929190610b77565b60206040518083038186803b15801561057657600080fd5b505afa15801561058a573d6000803e3d6000fd5b505050506040513d601f19601f820116820180604052508101906105ae91906108a0565b146105ee576040517f08c379a00000000000000000000000000000000000000000000000000000000081526004016105e590610ccc565b60405180910390fd5b8073ffffffffffffffffffffffffffffffffffffffff166323b872dd33600060029054906101000a900473ffffffffffffffffffffffffffffffffffffffff16896040518463ffffffff1660e01b815260040161064d93929190610ba0565b602060405180830381600087803b15801561066757600080fd5b505af115801561067b573d6000803e3d6000fd5b505050506040513d601f19601f8201168201806040525081019061069f91906107ca565b6106de576040517f08c379a00000000000000000000000000000000000000000000000000000000081526004016106d590610cec565b60405180910390fd5b7f5a2cea108e12802329bee171c7dbb8daea79dd8d7e0954d684cf575026ea544b843433886040516107139493929190610c59565b60405180910390a1505050505050565b600061073661073184610d7d565b610d4c565b90508281526020810184848401111561074e57600080fd5b610759848285610e1c565b509392505050565b60008151905061077081610e9e565b92915050565b600082601f83011261078757600080fd5b8135610797848260208601610723565b91505092915050565b6000813590506107af81610eb5565b92915050565b6000815190506107c481610eb5565b92915050565b6000602082840312156107dc57600080fd5b60006107ea84828501610761565b91505092915050565b60006020828403121561080557600080fd5b600082013567ffffffffffffffff81111561081f57600080fd5b61082b84828501610776565b91505092915050565b6000806040838503121561084757600080fd5b600083013567ffffffffffffffff81111561086157600080fd5b61086d85828601610776565b925050602083013567ffffffffffffffff81111561088a57600080fd5b61089685828601610776565b9150509250929050565b6000602082840312156108b257600080fd5b60006108c0848285016107b5565b91505092915050565b6000806000606084860312156108de57600080fd5b60006108ec868287016107a0565b935050602084013567ffffffffffffffff81111561090957600080fd5b61091586828701610776565b925050604084013567ffffffffffffffff81111561093257600080fd5b61093e86828701610776565b9150509250925092565b61095181610dd4565b82525050565b61096081610de6565b82525050565b600061097182610dad565b61097b8185610db8565b935061098b818560208601610e2b565b61099481610e8d565b840191505092915050565b60006109aa82610dad565b6109b48185610dc9565b93506109c4818560208601610e2b565b80840191505092915050565b60006109dd601383610db8565b91507f73796d626f6c206973206e6f742076616c6964000000000000000000000000006000830152602082019050919050565b6000610a1d600f83610db8565b91507f416c6c6f77616e6365206572726f7200000000000000000000000000000000006000830152602082019050919050565b6000610a5d601483610db8565b91507f5472616e7366657220746f6b656e206572726f720000000000000000000000006000830152602082019050919050565b6000610a9d602e83610db8565b91507f496e697469616c697a61626c653a20636f6e747261637420697320616c72656160008301527f647920696e697469616c697a65640000000000000000000000000000000000006020830152604082019050919050565b6000610b03601883610db8565b91507f416d6f756e74206d757374206265206d6f7265206174203000000000000000006000830152602082019050919050565b610b3f81610e12565b82525050565b6000610b51828461099f565b915081905092915050565b6000602082019050610b716000830184610948565b92915050565b6000604082019050610b8c6000830185610948565b610b996020830184610948565b9392505050565b6000606082019050610bb56000830186610948565b610bc26020830185610948565b610bcf6040830184610b36565b949350505050565b6000604082019050610bec6000830185610948565b610bf96020830184610957565b9392505050565b6000602082019050610c156000830184610957565b92915050565b60006060820190508181036000830152610c358186610966565b9050610c446020830185610b36565b610c516040830184610948565b949350505050565b60006080820190508181036000830152610c738187610966565b9050610c826020830186610b36565b610c8f6040830185610948565b8181036060830152610ca18184610966565b905095945050505050565b60006020820190508181036000830152610cc5816109d0565b9050919050565b60006020820190508181036000830152610ce581610a10565b9050919050565b60006020820190508181036000830152610d0581610a50565b9050919050565b60006020820190508181036000830152610d2581610a90565b9050919050565b60006020820190508181036000830152610d4581610af6565b9050919050565b6000604051905081810181811067ffffffffffffffff82111715610d7357610d72610e5e565b5b8060405250919050565b600067ffffffffffffffff821115610d9857610d97610e5e565b5b601f19601f8301169050602081019050919050565b600081519050919050565b600082825260208201905092915050565b600081905092915050565b6000610ddf82610df2565b9050919050565b60008115159050919050565b600073ffffffffffffffffffffffffffffffffffffffff82169050919050565b6000819050919050565b82818337600083830152505050565b60005b83811015610e49578082015181840152602081019050610e2e565b83811115610e58576000848401525b50505050565b7f4e487b7100000000000000000000000000000000000000000000000000000000600052604160045260246000fd5b6000601f19601f8301169050919050565b610ea781610de6565b8114610eb257600080fd5b50565b610ebe81610e12565b8114610ec957600080fd5b5056fea26469706673582212205f92e1d7b23b87933cf2a57d21560b2d5b4f283f1fc6f51e314fcee2753d37c864736f6c63430008000033",
  "immutableReferences": {},
  "source": "// SPDX-License-Identifier: MIT\npragma solidity >=0.4.22 <0.9.0;\n\nimport \"./tokensAddr.sol\";\nimport \"@openzeppelin/contracts-upgradeable/proxy/utils/Initializable.sol\";\nimport \"@openzeppelin/contracts/token/ERC20/IERC20.sol\";\n\ncontract Transfer is Initializable, TokensAddr {\n    address public owner;\n    event transferETHEvent(string cosmosWallet, uint256 amount, address sender);\n    event transferERC20Event(\n        string cosmosWallet,\n        uint256 amount,\n        address sender,\n        string token\n    );\n\n    function TransferInit() public initializer {\n        owner = msg.sender;\n    }\n\n    function transferETH(string memory _cosmosWallet) public payable {\n        require(msg.value > 0, \"Amount must be more at 0\");\n        payable(owner).transfer(msg.value);\n        emit transferETHEvent(_cosmosWallet, msg.value, msg.sender);\n    }\n\n    function transferERC20(\n        uint256 _amount,\n        string memory _symbol,\n        string memory _cosmosWallet\n    ) public payable {\n        (address tokenAddr, bool err) = getTokenAddr(_symbol);\n        require(err, \"symbol is not valid\");\n        IERC20 token = IERC20(tokenAddr);\n        require(\n            token.allowance(msg.sender, owner) == _amount,\n            \"Allowance error\"\n        );\n        require(\n            token.transferFrom(msg.sender, owner, _amount),\n            \"Transfer token error\"\n        );\n        emit transferERC20Event(_cosmosWallet, msg.value, msg.sender, _symbol);\n    }\n}\n",
  "sourcePath": "/Users/macbook/Documents/freelance/go/src/github.com/VoroshilovMax/bettery/contracts/contracts/ether/Transfer.sol",
  "compiler": {
    "name": "solc",
    "version": "0.8.0+commit.c7dfd78e.Linux.g++"
  },
  "schemaVersion": "3.4.2",
  "updatedAt": "2021-08-05T09:51:51.772Z",
  "devdoc": {
    "kind": "dev",
    "methods": {},
    "version": 1
  },
  "userdoc": {
    "kind": "user",
    "methods": {},
    "version": 1
  }
}